:020000040800F2
:10000000900600200101000813280008792200084A
:1000100011280008130B00084930000800000000F8
:100020000000000000000000000000008F2B00080E
:10003000D50B0008000000008D2B0008912B000854
:100040001B0100081B0100081B0100081B01000820
:100050001B0100081B010008D70B00081B0100084A
:100060001B0100081B0100081B0100081B01000800
:100070001B0100081B0100081B0100081B010008F0
:100080001B0100081B0100081B0100081B010008E0
:100090001B0100081B0100081B0100081B010008D0
:1000A0001B0100081B0100081B0100081B010008C0
:1000B0001B0100081B0100081B0100081B010008B0
:1000C0001B0100081B0100081B0100081B010008A0
:1000D0001B0100083D3000081B0100081B0100083F
:1000E0001B0100081B0100081B010008DFF80CD0F1
:1000F00000F060FC00480047955000089006002082
:100100000648804706480047FEE7FEE7FEE7FEE7B1
:10011000FEE7FEE7FEE7FEE7FEE7FEE7F32B00085B
:10012000ED0000082DE9F0410024061B254671F181
:10013000000605DA01240027D0EB070067EB010178
:10014000161E73F1000605DA0027D2EB070201251F
:1001500067EB030300F00CFA86460E4617469C46F2
:10016000AC4204D00025D0EB050E65EB010624B1AE
:100170000020D2EB000760EB030C704631463A4694
:100180006346BDE8F081202A04DB203A21FA02F020
:100190000021704721FA02F3D040C2F120029140C1
:1001A000084319467047D2B201E000F8012B491EFE
:1001B000FBD270470022F6E710B513460A46044604
:1001C0001946FFF7F0FF204610BD30B50446002069
:1001D000034600E05B1C934203D2E05CCD5C401B15
:1001E000F8D030BDF0B480EA0102D40F4200B2EB87
:1001F000410F02D20246084611464A0042D0C30DC2
:10020000DDB2C1F3C752AD1A202D35DAC1F31601A4
:1002100041F4000204B15242C5F1200602FA06F18F
:100220002A411044B3EBD05F23D0C4B1012DA0EB21
:10023000C35009DCF0BC4FF0004202EAC352DBB20B
:1002400000F5000000F0CEB9400000F1807000EB36
:10025000C350A0F1807040EAD170490009E049081C
:1002600041EAC071A0EBC35000F50000400800EB6C
:10027000C350F0BC00F0ADB96142012202EB410174
:10028000001BF6E7F0BC704781F00041AAE780F060
:100290000040A7E780EA010210B502F000434000E9
:1002A00022D04A001FD0010E01EB1261C0F35600AC
:1002B000C2F3560240F4000042F40002A0FB022008
:1002C00000047F39140400D0401C50EA124001D4CD
:1002D0004000491EC2B20C0604EBD010401C40087E
:1002E000802A02D003E0002010BD20F00100002988
:1002F00000DA0020184310BD30B480EA010202F099
:10030000004530F0004221F0004013D090B1C30D01
:10031000D40DC2F31601C0F31600E41A41F4000133
:1003200040F400027D34914201D3641C00E0490096
:10033000002C02DA30BC002070474FF4000000238C
:10034000914201D3891A034340084FEA4101F7D192
:1003500051B1914202D14FF0004105E002D24FF07D
:10036000010101E06FF0010103EBC450284430BCEF
:1003700000F02FB9420005D0C0F3C752524291425B
:1003800001DC0020704700EBC15070472DE9FE4FA3
:1003900081EA030404F0004421F0004100944FF08E
:1003A000000B23F0004350EA01045ED052EA03043C
:1003B0005BD0C3F30A54C1F30A552C44A4F2F334BE
:1003C0000194A0FB0254C1F3130141F48011C3F363
:1003D000130343F4801301FB024400FB034E840A21
:1003E000970A44EA815447EA8357A4FB07680295B9
:1003F0008D0A05FB07854FEA932C04FB0C54270557
:10040000029D4FEA065847EA1637B5EB08056EEB32
:10041000070C870E920E47EA811742EA8312A7FB68
:100420000201B6EB0B0164EB00042B0D43EA0C3325
:100430005E1844EB1C50DA465146E7FB0201C5F357
:1004400013044FEA0B3343EA14534FEA0432019C7E
:1004500043EA0603A4F10C040294009CCDE900B425
:1004600000F0FDF803B0BDE8F08F00200146F9E789
:10047000C10F80EAE0700844CA079623002100F00B
:10048000B1B896230022114600F0ACB800F000424B
:1004900020F00040C10DC0F3160040F400007F2999
:1004A00001DA00207047962903DCC1F19601C840AB
:1004B00001E096398840002AF4D04042704720F08D
:1004C0000040C10DC0F3160040F400007F2901DA9E
:1004D00000207047962903DCC1F19601C84070479F
:1004E00096398840704700F0004230F000400AD052
:1004F000C10D01F56071C0F3160042EA0151C20856
:1005000040071143704700200146704701F0004347
:1005100030B421F0004150EA010206D00A0DA2F5E4
:100520006072C1F31301002A02DC30BC0020704766
:10053000440F44EAC104C100E01830BC00EBC250D3
:1005400000F047B830B50B460146002020220124B8
:1005500009E021FA02F59D4205D303FA02F5491B91
:1005600004FA02F52844151EA2F10102F1DC30BDA7
:100570002DE9F05F0546002092469B4688460646D8
:10058000814640241BE02846414647462246FFF765
:10059000FAFD53465A46C01A914110D311461846E7
:1005A000224600F019FA2D1A67EB01084F46224641
:1005B0000120002100F010FA17EB00094E41201E27
:1005C000A4F10104DFDC484631462A464346BDE833
:1005D000F09F0029A8BF7047401C490008BF20F0C9
:1005E0000100704710B4B0FA80FC00FA0CF050EA39
:1005F000010404BF10BC704749B1CCF1200421FABA
:1006000004F411FA0CF118BF012121430843A3EBB4
:100610000C01CB1D4FEA00614FEA102042BF0020C1
:1006200010BC704700EBC35010440029A4BF10BC9D
:100630007047401C490008BF20F0010010BC704703
:1006400010B5141E73F1000408DA401C41F10001DA
:1006500092185B411A4301D120F0010010BD2DE931
:10066000F04D92469B4611B1B1FA81F202E0B0FA28
:1006700080F22032904600F0AFF904460F4640EA7F
:100680000A0041EA0B0153465A46084313D011466B
:1006900053EA010019D0C8F140025046FFF773FD3C
:1006A00005460E4650465946424600F095F9084325
:1006B00005D0012004E020463946BDE8F08D002039
:1006C000054346EAE0762C4337430A986305E40A7B
:1006D000A0EB08000022FD0A44EA47540A3002D584
:1006E00000200146E9E7010510196941DDE90845E7
:1006F00000196941BDE8F04DA2E72DE9FE4F8046A3
:1007000081EA0300C00F0C46009021F0004123F065
:100710000045B8EB0200A94105D24046214690466B
:100720001C460B46024623F00040104347D0270DDD
:10073000C7F30A00C3F30A510290401A01904028FF
:100740006BDAC3F3130040F4801B0098924620B18B
:100750000023D2EB030A63EB0B0B01985946C0F15F
:100760004002504600F038F906460D4650465946BC
:10077000019A00F040F910EB08006141002487EA7B
:10078000115284EAE7731A4340D0009A62B3019A87
:10079000012A4FEA075215DC001B61EB02014FF002
:1007A000004202EA0752CDE90042001C41F58011E7
:1007B00032462B46FFF753FF03B0BDE8F08F4046AB
:1007C0002146F9E7001B61EB0201001C41F5801393
:1007D00000185B412018A2F5001747EB030140EA1F
:1007E000D570B6196D4111E06D084FEA360645EA3D
:1007F000C0754FEA0752001B61EB0201001C41F576
:10080000801149084FEA30000019514132462B4609
:1008100003B0BDE8F04FFFF713BF0098012240007E
:100820000023D0EB020263EBE073009821464FEA0D
:10083000E074B8EB000061EB0401E9E783F00043EA
:100840005BE781F0004158E72DE9F04D81EA0304B0
:1008500004F0004B21F0004514464FF0000A23F04D
:10086000004150EA050220D054EA01021DD0C5F330
:100870000A570246C5F31303C1F31300C1F30A5626
:1008800040F4801543F48013A7EB0608101BD646EE
:1008900008F2FD3873EB050002D308F1010801E00E
:1008A00092185B41B8F1000F03DA00200146BDE861
:1008B000F08D00204FF48011064684460EE0171B91
:1008C00073EB050705D3121B63EB050306434CEAE4
:1008D000010C49084FEA300092185B4150EA0107C9
:1008E000EDD152EA030012D082EA040083EA050146
:1008F000084305D0101BAB4106D20122002306E0BD
:1009000000224FF0004302E06FF0010253101AEB97
:1009100006004CEB085110EB0A0041EB0B01BDE85F
:10092000F04DFFF78DBE70B521F0004303430CD0AE
:10093000C1F30A550024D5EB040564EB0403D61774
:10094000AD1AB34102DB0020014670BD201841EB17
:10095000025170BDC1F30A52C1F3130140F2FF33DB
:1009600041F480119A4202DA00200146704740F2B9
:1009700033439A42A2F2334202DC5242FFF703BCF5
:1009800000F02AB830B5041E71F1000404DB4FF00A
:100990000044404264EB0101141E73F1000405DBC6
:1009A0001C464FF00043524263EB0403994208BFD8
:1009B000904230BD064C074D06E0E06840F0010370
:1009C00094E8070098471034AC42F6D3FFF792FB47
:1009D000E076000800770008202A04DB203A00FABD
:1009E00002F1002070479140C2F1200320FA03F386
:1009F000194390407047202A06DBCB17203A41FA72
:100A000002F043EAE07306E041FA02F3D040C2F19B
:100A1000200291400843194670472DE9F04D00230C
:100A20001A461B1A8A4103DB00200146BDE8F08DFF
:100A3000C1F30A52C1F3130141F480154FF0000BCA
:100A4000D10702D100186D41521E0027044640F222
:100A5000FF11384601EB620A3E46804602460020FE
:100A60004FF48011FFF78FFBC2197141BB1846EBA1
:100A70000100B4EB030C75EB000C04D3E41A65EB36
:100A8000000517460E46241908F101006D41804605
:100A90003428E3DDF91946EB0600091BA84103D20F
:100AA0004FF0FF32134601E0002213461BEB070014
:100AB00046EB0A51BDE8F04DFFF7C2BD70B58C188A
:100AC00010F8015B15F0070301D110F8013B2A1162
:100AD00006D110F8012B03E010F8016B01F8016B4F
:100AE0005B1EF9D12B0705D40023521E0DD401F84B
:100AF000013BFAE710F8013BCB1A921C03E013F814
:100B0000015B01F8015B521EF9D5A142D8D3002048
:100B100070BDFEE72DE9F0414FF4FA7588B0284624
:100B200000F0CEF804F04CFC044609E0284600F042
:100B3000C7F804F045FC0446014614A002F086FA0A
:100B4000002CF3D117A002F081FA012406AA05A90E
:100B500004A804F067FB98B90698FFF7C4FC0746A1
:100B600088460598FFF7BFFC05460E460498FFF738
:100B7000BAFC8DE8E00102460B460FA002F066FACF
:100B8000641C1E2CE2DB08B0BDE8F0814D505536E8
:100B900030353020696E6974206572726F723A2543
:100BA000640D0A004D50553630353020696E697439
:100BB000204F4B0D0A00000070697463683A256687
:100BC000092C726F6C6C3A2566092C7961773A258D
:100BD000660D0A007047012000F096B872B6FEE775
:100BE00010B590F821100022022905D0042181635C
:100BF00080F82020012010BD01680B6823F00E034F
:100C00000B6001680B6823F001030B6090F8403023
:100C1000C46B012101FA03F3636080F8211080F8AE
:100C20002020104610BD000010B590F821100024BF
:100C3000022903D00421816301243DE001680A6890
:100C400022F00E020A6001680A6822F001020A60BE
:100C50001A4A0168914201D1012121E0174A143258
:100C6000914201D110211BE0144A2832914201D156
:100C7000891515E0114A3C32914201D189140FE0E7
:100C80000E4A5032914202D14FF4803108E00B4AB3
:100C90006432914202D14FF4801101E04FF0807133
:100CA000064A083A5160012180F82110002180F89D
:100CB0002010416B01B18847204610BD080002405A
:100CC00070B5044600F02AF90546601C02D00448BD
:100CD0000078044400F022F9401BA042FAD370BD12
:100CE0001001002010B50121034800F009F9BDE80A
:100CF000104002A002F0AAB9000C0140656E6769BD
:100D0000656E206F6E000000044910B50A6802424B
:100D100002D00860FFF7E6FF10BD00001404014098
:100D20002DE9F84FDFF8B891002409F1040A0AF11F
:100D3000040B23460F270BF1040EC9E00125A54043
:100D40002A40AA427DD1674ED1F804C0ACEB060818
:100D5000B44532D014DCBCF1030F3AD009DCBCF14D
:100D6000000F2AD0BCF1010F1CD0BCF1020F31D111
:100D70001DE0BCF1110F17D0BCF1120F2AD119E000
:100D8000B8F5881F19D006DCB8F5803F15D0B8F546
:100D9000801F1FD111E0B8F5001F0ED0B8F5041F59
:100DA00018D10AE0CB6815E0CB681B1D12E0CB68B8
:100DB00008330FE0CB680C330CE08B682BB1012BB0
:100DC0004FF0080303D0456104E0042302E005610D
:100DD00000E00023FF2A01D8064601E000F10406E6
:100DE0004FEA840501D9A5F12005D6F8008007FA5D
:100DF00005FC28EA0C0803FA05F548EA0508C6F8D8
:100E000000804D68ED0062D5374DAE6946F00106B1
:100E1000AE61AD6924F0030605F001050095334D80
:100E200006EB050CDCF80850A607360F07FA06F8A3
:100E300025EA0805DFF8B880404503D14FF00008E7
:100E400017E044E0DFF8AC80404502D14FF00108E4
:100E50000FE0DFF8A480404502D14FF0020808E01F
:100E6000DFF89880404502D14FF0030801E04FF0D1
:100E7000040808FA06F848EA0508CCF808804D6826
:100E8000D9F80060ED034D4601D5164300E09643C6
:100E90002E604D68DAF80060AD03554601D5164363
:100EA00000E096432E604D68DBF80060ED025D4681
:100EB00001D5164300E096432E604D68DEF80060D1
:100EC000AD02754601D5164300E096432E60641CC2
:100ED0000D682A46E5407FF431AFBDE8F88F000089
:100EE0000004014000001110001002400000014009
:100EF00000080140000C01400010014000140140B6
:100F0000C26821EA02030A4043EA024101617047D4
:100F10000AB1016170470904FBE7000001488068DD
:100F2000704700001001002070B5040025D094F82F
:100F30003D00002520B984F83C50204600F078FAA6
:100F4000242084F83D002068016821F0010101603F
:100F50002068016841F4004101602068016821F4C3
:100F60000041016000F0C8FB4D4A6168914201D820
:100F70004C4900E04C49884201D2012070BD4B49E8
:100F80002368B0FBF1F15E6826F03F060E435E6019
:100F90006368934206D94FF4967359434FF47A73BA
:100FA000B1FBF3F12368491C1E6A26F03F0631436A
:100FB00019626168914210D84900401EB0FBF1F2FD
:100FC000521CC2F30B02042A01D2042022E0B0FB1F
:100FD000F1F0401CC0F30B001CE0A268F2B301EB7F
:100FE000C10303EB0116431EB3FBF6F35B1C43F492
:100FF00080431B0549D092B301EBC10202EB011102
:10100000401EB0FBF1F0401CC0F30B0040F48040E8
:1010100040F400402168CA694CF6FF739A431043BC
:10102000C861D4E9071001432068026822F0C002B9
:1010300011430160D4E9030101432068826848F24A
:10104000FF339A4311438160D4E9050108432168C5
:10105000CA6822F0FF021043C86001E00EE016E00B
:101060002068016841F0010101602564202084F8B6
:101070003D00256384F83E50002070BD01EB410621
:10108000431EB3FBF6F35B1CB3E70120C2E701EBA1
:101090004101401EB0FBF1F0401CC0F30B00B7E76C
:1010A000A086010080841E0000093D0040420F0020
:1010B0002DE9FF4F83B00025DDE910799A4693466C
:1010C0000446DDF848800095FFF728FF064694F8AF
:1010D0003D0020287CD11923012285492046009615
:1010E00001F0DAF90028F5D194F83C0001286FD01E
:1010F000012084F83C0020680168C90703D1016819
:1011000041F0010101602068016821F40061016083
:10111000222084F83D00402084F83E002564676268
:10112000A4F82A90608D20857248E062CDE900869F
:1011300053465A462046049901F0B6F800287DD15E
:10114000208DDFF8B491202768B1012814D002283F
:10115000206801681ED041F4806101602068416907
:1011600080690090B6E0206841698169009101685A
:1011700041F400710160ADE02068016821F48061F4
:10118000016072B62068416981690091016841F48B
:1011900000710AE041F40061016072B620684169A3
:1011A00081690091016821F48061016062B691E07B
:1011B000032868D801280CD0022843464FF00002CB
:1011C0004946204600960FD001F066F9B0BB10E00A
:1011D0008BE032464146204601F0DDF970BB2068C5
:1011E0000069616A08706CE001F056F930BB72B6B4
:1011F00034E02068016821F48061016072B62068E3
:101200000069616A0870606A401C6062208D401E3F
:101210002085608D401E6085384846F2A811006820
:10122000B0FBF1F0C0EBC00000EB80000090401E6E
:10123000009008D020684069C04300E029E04007E2
:101240000CD50098F3E744F8305F6773A573206905
:1012500040F02000206162B625731AE02068016822
:1012600041F40071016020680069616A0870606A79
:10127000401C6062218D491E2185618D491E61855A
:1012800062B621681BE032464146204601F083F9F0
:1012900018B1012007B0BDE8F08F20680069616ACD
:1012A0000870606A401C6062218D491E2185618D35
:1012B000491E618521684A69D24352070AD40969E7
:1012C0000170606A401C6062208D401E2085608D28
:1012D000401E6085208D00287FF46AAF84F83D7041
:1012E00084F83E5084F83C50D4E70220D2E7000056
:1012F000020010000000FFFF040001001C0100209C
:101300002DE9FF4F83B09A46DDE9119793460446D5
:10131000DDF84080FFF702FE054694F83D002028E6
:101320007FD11923012240492046009501F0B4F8ED
:10133000002876D194F83C00012872D0012084F86E
:101340003C0020680168C90703D1016841F0010130
:1013500001602068016821F400610160212084F8A7
:101360003D00402084F83E0000262664C4F8248016
:10137000A4F82A90608D20852C48E062CDE90075A4
:1013800053465A462046049901F00CF870B930E0F3
:101390002A463946204601F031F958B1206C04281C
:1013A00004D12068016841F400710160012007B098
:1013B000BDE8F08F606A216800780861606A401CAF
:1013C0006062218D491E89B22185628D521E62851F
:1013D00022685369DB435B070BD469B10078106165
:1013E000606A401C6062208D401E2085608D401E1A
:1013F0006085208D0028CBD12A463946204601F051
:1014000025F80028CAD154F83D0B016841F4007159
:101410000160202004F81E09E67766770020C6E701
:10142000FFE70220C3E70000020010000000FFFFFA
:1014300010B586B0002100910191029103910068DE
:101440001349884222D1134CE06940F40010E06156
:10145000E06900F400100490A06940F00800A06169
:10146000A069694600F008000490C0200090122096
:101470000190032003900848FFF752FCE06940F414
:101480000010E061E06900F40010049006B010BDA7
:101490000054004000100240000C014002488168E6
:1014A000027811448160704710010020074810B590
:1014B000016841F010010160032000F075F80F2071
:1014C00000F006F800F024F8002010BD00200240D3
:1014D00070B50D4D04464FF47A712878B1FBF0F0E9
:1014E0000A490968B1FBF0F000F0ECFA48B9102C99
:1014F00007D200222146501E00F036F800206C6012
:1015000070BD012070BD0000100100201C010020F2
:101510000C4808B5816941F001018161816901F0E0
:1015200001010091C16941F08051C161C06900F0C1
:10153000805000900448416821F0E06141F0007162
:10154000416008BD0010024000000140002809DB96
:1015500000F01F02012191404009800000F1E020CD
:10156000C0F8001170470000F0B40E4B1B680C4629
:10157000C3F30223C3F10705042D00D90425191D67
:10158000072901D2002300E0DB1E012606FA05F13F
:10159000491E214099409E40761E16403143F0BCC2
:1015A00001F078BD0CED00E0064900F00702086884
:1015B0004FF6FF03184040EA0220034A1043086038
:1015C000704700000CED00E00000FA052DE9F0473F
:1015D0000F46050061D0434E306800F00700B84266
:1015E00009D2306820F0070038433060306800F0DE
:1015F0000700B84251D128683B4C810712D54007FB
:1016000003D5606840F4E06060602878000703D587
:10161000606840F4605060606068A96820F0F00085
:10162000084360602878C00728D06868012810D077
:101630002168022810D0890700292EDA616821F07C
:10164000030101436160FFF769FC804641F288397C
:101650000DE021688903EFE78901EDE7FFF75EFC04
:10166000A0EB0801494502D90320BDE8F087606876
:10167000696800F00C00B0EB810FEFD1306800F02A
:101680000700B8420BD9306820F0070038433060BB
:10169000306800F00700B84201D00120E5E7287863
:1016A000400705D56068E96820F4E06008436060A1
:1016B0002878000706D56068296920F4605040EA60
:1016C000C100606000F038F86168084AC1F3031196
:1016D000515CC8400649086006480068FFF7F8FEFC
:1016E0000020C2E700200240001002408869000884
:1016F0001C010020140100200448054900684968C5
:10170000044AC1F30221515CC84070471C0100200B
:1017100000100240986900080448054900684968BB
:10172000044AC1F3C221515CC84070471C0100202B
:10173000001002409869000812A185B00FC98DE819
:101740000F0014A0144A006804905168134801F077
:101750000C03042B10D0082B0ED1C1F38343C90313
:101760001DF803000AD5516804AAC1F34041515C39
:101770000A4A5043B0FBF1F005B0704708494843AE
:10178000FAE7000002030405060708090A0B0C0D1E
:101790000E0F1010010200000010024000127A002B
:1017A00000093D002DE9F84F040070D02078C04DAD
:1017B000C00749D06868C0F38100012807D0686875
:1017C000C0F38100022809D16868C00306D52868E3
:1017D000800339D560680028E7D035E06068B0F54F
:1017E000803F0BD010B1B0F5A02F11D0286820F4A5
:1017F00080302860286820F4802002E0286840F4C7
:1018000080302860606890B1FFF788FB06460AE0E8
:10181000286840F480202860F0E700BFFFF77EFBD7
:10182000801B642873D828688003F7D50CE0FFF785
:1018300075FB064605E000BFFFF770FB801B6428C0
:10184000F0D828688003F7D420789A4E80074FF0AC
:1018500001094FF0000839D5686810F00C0F07D067
:101860006868C0F38100022809D16868C00306D403
:101870002868800714D52069012808D110E0206964
:10188000B0B1C6F80090FFF749FB074605E00AE152
:10189000FFF744FBC01B0228C4D828688007F7D58F
:1018A0002868616920F0F80040EAC10028600DE076
:1018B000C6F80080FFF732FB074604E0FFF72EFB77
:1018C000C01B022823D828688007F7D42078000797
:1018D0002CD57948A169D9B1C0F80090FFF71EFB5B
:1018E000074604E0FFF71AFBC01B02280FD8686AFE
:1018F0008007F7D571484FF4FA510068B0FBF1F05A
:10190000009000BF0098411E0091FAD20EE080E0E6
:10191000C0F80080FFF702FB074604E0FFF7FEFA7D
:10192000C01B022875D8686A8007F7D42078400762
:1019300060D5E8690027C00008D4E86940F080500D
:10194000E861E869012700F0805000905C48016878
:10195000C90513D40168834641F480710160FFF723
:10196000DDFA824606E000BFFFF7D8FAA0EB0A00D6
:1019700064284ED8DBF80000C005F5D5E0680128E2
:101980000AD008B1052813D0286A20F00100286287
:10199000286A20F0040002E0286A40F00100286272
:1019A000E06841F2883B98B1FFF7B8FA82460BE055
:1019B000286A40F004002862EEE700BFFFF7AEFAA5
:1019C000A0EB0A0159455AD8286A8007F6D50CE0E1
:1019D000FFF7A4FA824605E0FFF7A0FAA0EB0A01A0
:1019E00059454CD8286A8007F6D41FB1E86920F021
:1019F0008050E861E06988B36968C1F38101022918
:101A000044D00228C6F8608004D0FFF787FA044665
:101A100038E034E0FFF782FA074604E0FFF77EFA89
:101A2000C01B02282BD828688001F7D4206AB0F5A3
:101A3000803F05D16868A16820F4003008436860E1
:101A4000D4E908010843696821F474110843686007
:101A5000C6F86090FFF762FA044606E025E000BF92
:101A6000FFF75CFA001B022809D828688001F7D527
:101A70001BE000BFFFF752FA001B022802D9032027
:101A8000BDE8F88F28688001F4D40EE00128F7D073
:101A90006868226A00F48031914204D1616A00F4DE
:101AA0007010884201D00120EAE70020E8E700003A
:101AB0000010024000004242800442421C0100200B
:101AC0000070004010B5401EB0F1807F01D30120AE
:101AD00010BD4FF0E02460610F21601701F0DAFAC9
:101AE0000020A06107202061002010BD70B590F893
:101AF0003C20012A26D0012480F83C40022280F8B4
:101B00003D2003685A689D6822F070060A683243D7
:101B10005A600D4B02689A4208D0B2F1804F05D04E
:101B20000A4B9A4202D00A4B9A4204D1496825F0E6
:101B300080031943916080F83D40002180F83C10FB
:101B4000084670BD022070BD002C0140000400401A
:101B50000008004010B5040003D094F83D0010B117
:101B600007E0012010BD002084F83C00204600F072
:101B70001FF8022084F83D00211D206801F03AF88A
:101B8000012084F8460084F83E0084F83F0084F881
:101B9000400084F8410084F8420084F8430084F84F
:101BA000440084F8450084F83D00002010BD00008A
:101BB00008B50068B0F1804F08D10548C16941F00F
:101BC0000101C161C06900F00100009008BD000082
:101BD0000010024070B5044690F83C00012817D070
:101BE000012584F83C50022084F83D00206882687A
:101BF00022F0770222F47F4282600868502830D0B9
:101C00000DDC20284DD005DC98B310283BD148E0EE
:101C1000022070BD302844D0402834D139E06028FB
:101C200028D0702806D0B0F5805F2CD0B0F5005FCA
:101C300029D10AE0CB68D1E90121206801F01DF823
:101C40002068816841F0770109E0CB68D1E9012182
:101C5000206801F012F82068816841F480418160B9
:101C600011E0CA684968206801F0BCF8502120687A
:101C700007E016E0CA684968206801F0C4F86021EE
:101C8000206801F004F884F83D50002084F83C00FE
:101C900070BDCA684968206801F0A4F84021206836
:101CA000EFE7226801461046EBE7000000B585B07B
:101CB000002100910191029103910068B0F1804FE1
:101CC0001BD10F48816941F0040181618069694637
:101CD00000F00400049048F20400009002200190FB
:101CE00003900848FFF71CF80748416821F4407149
:101CF00041F0E06141F48071416005B000BD000039
:101D000000100240000801400000014070B5044688
:101D100090F83C000D4601280AD0012084F83C00D0
:101D200042B1042A18D0082A2AD00C2A4DD139E011
:101D3000022070BD206800F0B3FF2068816941F087
:101D4000080181612068816921F0040181612068B6
:101D500081692A69114311E0206800F0C9FF2068F9
:101D6000816941F4006181612068816921F48061A9
:101D70008161206881692A6941EA0221816124E048
:101D8000206800F0E1FF2068C16941F00801C161ED
:101D90002068C16921F00401C1612068C1692A6914
:101DA000114311E0206800F0FBFF2068C16941F495
:101DB0000061C1612068C16921F48061C16120684E
:101DC000C1692A6941EA0221C161002084F83C000E
:101DD00070BD10B5040003D094F83D0010B107E0C9
:101DE000012010BD002084F83C00204600F01EF8C1
:101DF000022084F83D00211D206800F0FBFE012038
:101E000084F8460084F83E0084F83F0084F84000DF
:101E100084F8410084F8420084F8430084F84400C8
:101E200084F8450084F83D00002010BD7047000094
:101E300010B50446022249B104290ED0082913D056
:101E400094F84100012816D0012010BD94F83E00FE
:101E50000128F9D184F83E200FE094F83F000128D2
:101E6000F2D184F83F2008E094F840000128EBD13B
:101E700084F8402001E084F841200122206800F02D
:101E8000EFFE0F492068884203D1426C42F40042C1
:101E900042642068884208D0B0F1804F05D00949DB
:101EA000884202D00849884204D1816801F00701C4
:101EB000062903D0016841F001010160002010BD36
:101EC000002C0140000400400008004070477047AB
:101ED000F8B5026804461068D168536910F00F0F16
:101EE0004FF0000553D003F0010601F4907737431B
:101EF0005FD0C20705D0CA0503D5226C42F00102AB
:101F00002264420705D5DA0703D0226C42F00202B0
:101F10002264820705D5DA0703D0226C42F004025E
:101F20002264020707D501F02002324303D0226C5D
:101F300042F008022264226C002A34D0800604D5C4
:101F4000880602D5204600F090FF20684069216C89
:101F5000C0F38010090700D430B3204600F06DFFB5
:101F60002068416949061BD5416921F04001416162
:101F7000A06BA8B158494163A06BFEF755FE00283D
:101F800011D0A06B416B01B0BDE8F040084783065B
:101F90000FD58B060DD52046BDE8F84000F065BF93
:101FA0002046FFF794FFF8BD2046FFF790FF256419
:101FB000F8BD266B2023012E52D1C60650D5CE0681
:101FC0004ED5106850680090506940062AD5A16B24
:101FD000086840680004000CEAD0A68D8642E7D964
:101FE000E0858869202818D0D06820F48070D060FF
:101FF0002068416921F0010141612068416921F0B7
:102000004001416184F83E3025632068C16821F0B9
:102010001001C160A06BFEF7E3FDA08DE18D401AB9
:1020200081B219E0A08DE18D401A81B2E08D0028C7
:10203000BED00029BCD0D06820F49070D060206859
:10204000426922F00102426184F83E302563206833
:10205000C26822F01002C2602046FFF737FFF8BDC9
:1020600005062BD50D0629D594F83D002128F6D17B
:10207000A068B0F5805F01D12069B0B1206A411C31
:102080002162216800784860E08C401E0004000C4A
:10209000E084E4D12068C16821F08001C16020683B
:1020A000C16841F04001C160F8BD206A0088C0F3FA
:1020B00008005060206A801C2062E5E74006F3D5E6
:1020C0004806F1D5D168204621F04001D16084F85E
:1020D0003D3000F0D0F8F8BD2B2E000870B504009C
:1020E00004D094F83D00002510B106E0012070BD39
:1020F00084F83C50204600F023F8242084F83D006A
:102100002068C16821F40051C160204600F008FF3A
:102110002068016921F4904101612068416921F042
:102120002A0141612068C16841F40051C160256401
:10213000202084F83D0084F83E00002070BD00009F
:1021400030B585B000240094019402940394006893
:10215000184988422CD11848816941F48041816135
:10216000816901F480410491816941F00401816138
:102170008069124D00F0040004904FF4007000904C
:10218000022001900320039069462846FEF7C8FD0F
:102190002815CDE90004694628460294FEF7C0FDE3
:1021A000002211462520FFF7DFF92520FFF7CEF9A1
:1021B00005B030BD00380140001002400008014069
:1021C000704700002DE9F843044690F83D001F4693
:1021D00016460D4620284CD1C5B1BEB194F83C003E
:1021E000012846D0012084F83C004FF00008C4F8D4
:1021F0004080212084F83D00FEF790FEA6848146B1
:10220000E684A068B0F5805F03D004E00120BDE85B
:10221000F883206928B12E465FF0000584F83C80E1
:102220000EE00026FAE78021204600F0D5FEA0B996
:10223000AEB116F8010B21684860E08C401EE084C6
:10224000E08C4B464FF0000200970028EBD14FF096
:102250004001204600F0C0FE30B10320D7E735F83A
:10226000020BC0F30800E6E7202084F83D000020C0
:10227000CDE70220CBE77047FEE701684A69D24309
:1022800052050FD46FF480624A61002140F8301F7C
:10229000202242738173026942F0040202610173D9
:1022A00001207047002070472DE9F84F0446006870
:1022B00089460B9D01689846174641F4806101608C
:1022C0002068016841F48071016000954FF0011BA6
:1022D0000022594620460A9B00F0DEF84FF4007AAF
:1022E00040B120680068C00501D5C4F840A00320B3
:1022F000BDE8F88F216809F0FE0008612B462849E7
:1023000020460A9A00F0FCF8F0BB20684169806919
:1023100000902A4620460A9900F070F940B1206CDE
:1023200004283AD12068016841F40071016034E06A
:10233000FEB2B8F1010F09D02168380A08612A46B7
:1023400020460A9900F05AF90028E8D12068066171
:102350002A4620460A9900F051F90028DFD120686A
:10236000016841F4807101600095002259462046C1
:102370000A9B00F091F80028B3D1216809F0FF0012
:1023800040F00100086100E007E02B4604492046C8
:102390000A9A00F0B5F80028AAD00120A8E70000AA
:1023A000020001002DE9F843044600680D46DDE90E
:1023B000089701689846164641F4807101604B46C3
:1023C00000224FF001112046009700F065F848B157
:1023D00020680068C00502D54FF400702064032017
:1023E000BDE8F883216805F0FE0008613B464A46D7
:1023F0001549204600F084F888B920684169806951
:1024000000903A464946204600F0F8F848B1206C62
:10241000042804D12068016841F4007101600120A2
:10242000DEE7F5B2B8F1010F09D02168300A086182
:102430003A464946204600F0E1F80028E7D12068F6
:1024400005610020CCE700000200010070B51646CF
:102450000D4604460DE02046FFF70FFF08B10120AE
:1024600070BD681C05D0FEF759FD801BA84207D837
:1024700035B120684069C0434007ECD4002070BDEE
:10248000002044F8300F20216173A073216941F0CE
:10249000200121612073E2E72DE9F0471E469046B6
:1024A0000D460446C1F30747DDF8209008E0701C94
:1024B00006D0FEF733FDA0EB0900B0420FD876B18D
:1024C0002068012F18D0806925EA00000004000C64
:1024D00014D000214145EAD00020BDE8F08700205B
:1024E00044F8300F20216173A073216941F020016D
:1024F000216120730120F0E74069E5E70121E9E768
:102500002DE9F0479A4691460E46044600254FF0C5
:102510002008C1F3074725E020684069C043400513
:1025200014D42068016841F40071016021686FF4DF
:1025300080604861256384F83D8084F83E50206CBB
:1025400040F00400206484F83C501FE0B9F1FF3FE4
:1025500008D0FEF7E3FCA0EB0A0149450CD8B9F11D
:10256000000F09D02068012F13D0806926EA0000EF
:102570000004000C0BD0CFE744F8305F84F80D80E6
:10258000A573206940F02000206125730120BDE87B
:10259000F0874069EAE72DE9F041002590460E46B4
:1025A0000446202717E04069C043C0060CD454F805
:1025B000301B6FF01000486144F810596777A57719
:1025C000206A2062257717E0FEF7A8FCA0EB080040
:1025D000B04208D83EB120684169C9434906E2D4F7
:1025E0000020BDE8F08144F8305F6773A57320696F
:1025F00040F02000206125730120F2E770B51646F7
:102600000D4604460DE02046FFF737FE08B10120D5
:1026100070BD681C05D0FEF781FC801BA84207D85E
:1026200035B120684069C0430006ECD4002070BD7D
:10263000002044F8300F20216173A073216941F01C
:10264000200121612073E2E7F0B585B00024244821
:102650000094019402940394816941F01001816116
:10266000816901F010010491816941F020018161CB
:10267000816901F020010491816941F004018161C7
:10268000816901F004010491816941F008018161CF
:102690008069144F00F00800049000221121384690
:1026A000FEF736FC10480125CDE9005002266946A8
:1026B00002960E48FEF734FB1120CDE90005CDE966
:1026C000024669463846FEF72BFB002211460620DB
:1026D000FEF74AFF0620FEF739FF05B0F0BD000007
:1026E00000100240000C01400000111000080140E1
:1026F0000D4810B50B4901600C49416000214FF4B1
:1027000080428160C0E9031241618161C16101625F
:10271000FEF70AFC002803D0BDE81040FEF75EBAC1
:1027200010BD00000054004060010020801A060027
:1027300010B58EB000240794089409940A940B9461
:102740001C2168460C94FDF735FD22484FF080416E
:1027500001604721C0E9011444F61F61C0E9031478
:1027600080218161FFF7F6F908B1FEF737FA4FF4DF
:102770008050079007A91748FFF72CFA08B1FEF719
:102780002DFA1448FFF725FB08B1FEF727FA0B9442
:102790000BA910480C94FFF7A9F908B1FEF71EFA2F
:1027A0006020CDE90004029400226946094804949F
:1027B000FFF7ACFA08B1FEF711FA0822694605489E
:1027C000FFF7A4FA08B1FEF709FA0248FFF76EFA1C
:1027D0000EB010BDB40100200C4810B50A490160CC
:1027E0004FF4E1314160002181600C22C160C0E9F9
:1027F00004128161C161FFF771FC002803D0BDE8BC
:102800001040FEF7EBB910BD00380140FC0100207C
:10281000FEE7FEE770B5002404F1B000C0B200216D
:1028200000F072F90021084600F06EF90021102036
:1028300000F06AF900250121002000F065F96D1C07
:10284000EDB2802DF7D3641CE4B2082CE4D370BD44
:1028500030B585B0002002904C48816941F00801F4
:10286000816180694FF44C5400F00800049001200D
:10287000CDE900400220464D039069462846FEF708
:102880004FFA012221462846FEF742FB6420FEF75C
:1028900017FA0021AE2000F037F90021084600F0B9
:1028A00033F90021102000F02FF90021402000F022
:1028B0002BF90021812000F027F90021CF2000F022
:1028C00023F90021A12000F01FF90021C82000F009
:1028D0001BF90021A62000F017F90021A82000F024
:1028E00013F900213F2000F00FF90021D32000F060
:1028F0000BF90021084600F007F90021D52000F06F
:1029000003F90021F02000F0FFF80021D92000F0A9
:10291000FBF80021F12000F0F7F80021DA2000F0A8
:10292000F3F80021122000F0EFF80021DB2000F086
:10293000EBF80021402000F0E7F80021202000F013
:10294000E3F80021022000F0DFF800218D2000F0E4
:10295000DBF80021142000F0D7F80021A42000F0BB
:10296000D3F80021A62000F0CFF80021AF2000F01E
:10297000CBF80021AF2000F0C7F8FFF74BFF002194
:10298000084600F007F805B030BD00000010024016
:10299000000C014010B50446B031C8B2002100F06F
:1029A000B3F8102040EA1410002100F0ADF804F054
:1029B0000F00BDE8104040F00100002100F0A4B875
:1029C0002DE9F04115460E460746FFF7E3FF0F4895
:1029D000002400EB85150121285D00F095F8641CAA
:1029E000E4B2102CF7D3761CF1B23846FFF7D2FFD1
:1029F00000242819012190F8200000F085F8641CBB
:102A0000E4B2102CF5D3BDE8F081000000000020F6
:102A10002DE9F041203A00240D468046D7B27F28A8
:102A200003D900208D1C8046EDB22946FFF7B2FF86
:102A30000F4E00BF04EB07100121305C00F064F87A
:102A4000641CE4B2082CF5D36D1CE9B24046FFF7D4
:102A5000A1FF002404EB071030440121007A00F0AC
:102A600053F8641CE4B2082CF4D3BDE8F0810000F4
:102A7000986300082DE9F0478046002608981D4617
:102A800091468A463446470821E0281B401EC1B2C1
:102A90000A2003F09BFBB9FBF0F00A21B0FBF1F236
:102AA00001FB120026B9691E8C4201DA30B1012601
:102AB0003030C2B207FB0480C0B203E007FB0480E1
:102AC000C0B220225146FFF7A3FF641CE4B2AC421F
:102AD000DBD3BDE8F0872DE9F04117460E460446EA
:102AE00000250CE031462046FFF792FF0834E4B29F
:102AF000782C02D90024B61CF6B26D1CEDB27A5DBA
:102B0000002AEFD1BDE8F0812DE9F0471E4D0646C1
:102B10004FF4805A09B1012200E0002251462846B4
:102B2000FEF7F6F94FF40058002241462846FEF71A
:102B3000EFF900244FF400794FF4807700223946F2
:102B40002846FEF7E5F9300601D5012200E0002213
:102B500049462846FEF7DCF9012239462846FEF7A9
:102B6000D7F97006641C060EE4B2082CE6D30122E5
:102B700041462846FEF7CCF951462846BDE8F047C5
:102B80000122FEF7C5B90000000C014070477047F4
:102B9000FEF784BC30B58FB028216846FDF70AFBEC
:102BA00014210AA8FDF706FB01210804CDE9001055
:102BB0000024029402250491CDE907504FF4E0105F
:102BC00009906846FEF7EEFD08B172B6FEE70F20E9
:102BD000CDE90A054FF48060CDE90C4002210AA836
:102BE0000E94FEF7F3FC002801D072B6FEE70FB09A
:102BF00030BD7047F0B50268164B174C174D4FF0BB
:102C00008047984205D0B84203D0A04201D0A842E4
:102C100003D122F070064A683243984205D0B84288
:102C200003D0A04201D0A84203D122F44074CA6864
:102C300022434C6922F08002224302608A68C26209
:102C40000A688262984201D10969016301214161E8
:102C5000F0BD0000002C01400004004000080040CE
:102C600010B501F01F030121046A99408C430462EE
:102C7000016A9A401143016210BD10B5846842EAAE
:102C8000032224F47F440A432243826010BD8268F9
:102C900022F070020A4342F0070181607047000091
:102CA00030B5026A22F001020262026A4368846956
:102CB00024F073050C682C4322F002058A682A432D
:102CC0000A4DA8420BD122F00805CA6823F44073CC
:102CD0002A434D6922F004021D438B692B43436054
:102CE000846149684163026230BD0000002C0140EC
:102CF00030B5026A22F010020262026A43688469F7
:102D00000D6824F4E64444EA05248D6822F020028C
:102D100042EA05120B4DA8420ED1CD6822F0800286
:102D200042EA05124D6923F4406343EA85038D6945
:102D300022F0400243EA850343608461496881636D
:102D4000026230BD002C014030B5026A22F480726C
:102D50000262036A4268C46923F4007324F07305B5
:102D60000C682C438D6843EA05230C4DA8420ED114
:102D7000CD6823F4006343EA05234D6922F44052F1
:102D800042EA05128D6923F4806342EA051242602B
:102D9000C4614968C163036230BD0000002C01407A
:102DA00030B5026A22F480520262046A4268C36942
:102DB0000D6823F4E64343EA05238D6824F40054A8
:102DC00044EA0534064DA84204D14D6922F48042FC
:102DD00042EA85124260C36149680164046230BD01
:102DE000002C014010B5036A046A24F00104046257
:102DF000846924F0F00444EA021423F00A020A432E
:102E00008461026210BD10B5036A23F010030362EF
:102E10008369046A23F4704343EA023224F0A00376
:102E200043EA01118261016210BD10B5406A0021C0
:102E3000C185C184FFF74BF810BD0168CA6822F450
:102E40009072CA6001684A6922F001024A61016B0E
:102E5000012904D10168CA6822F01002CA60202149
:102E600080F83E1000210163704708B590F83E10CD
:102E7000222901D0022008BD82684FF480539A4273
:102E800001D1016921B1816A9A421BD04AB10AE09D
:102E90000268816A5268C2F308020A80816A891C4A
:102EA00008E0026972B10268526802F07F020A709B
:102EB000816A491C8162C18D491E0904090CC185C2
:102EC00003D019E002685268F1E70168CA6822F08D
:102ED0002002CA600168CA6822F48072CA60016870
:102EE0004A6922F001024A61202180F83E10016BFC
:102EF000012903D0FFF764F9002008BD0021016318
:102F00000168CA6822F01002CA6001680A68D20625
:102F100002D50A6849680091818DFEF7D7FFEBE77B
:102F200070B5044600680169E26821F4405111431C
:102F300001612169A0680843616908432168CA6882
:102F400041F20C639A430243CA6020684169A26956
:102F500021F44071114341611E492068884202D129
:102F6000FEF7DAFB01E0FEF7C7FB00EBC00101EB67
:102F70000012606864218000B2FBF0F3B3FBF1F350
:102F80006FF018067343B2FBF0F5B2FBF0F605EBF9
:102F90008305322303EB0515B5FBF1F5B6FBF1F61E
:102FA00005F0F00505EB0615B2FBF0F6B2FBF0F00C
:102FB000B0FBF1F06FF01802504306EB800003EB1A
:102FC0000010B0FBF1F0216800F00F002844886089
:102FD00070BD0000003801402DE9F04198461746C9
:102FE0000E460446069D1DE0681C1BD02DB1FDF762
:102FF00095FFA0EB0800A84214D92068C16821F40D
:10300000D071C1602068416921F001014161202037
:1030100084F83D0084F83E00002084F83C00032042
:10302000BDE8F0812068006836EA000004D0002086
:10303000B842D9D00020F3E70120F9E70148FEF7B4
:1030400047BF0000FC010020FEE700000FB4054B65
:1030500010B503A9044A029800F06CF910BC5DF8A1
:1030600014FB00006D4A000858010020490050EA96
:10307000C12018BF04204A0D18BF40F0010040F2E3
:10308000FF72B2EB515F08BF40F00200012808BF99
:10309000052070470907090E002804DB00F1E02035
:1030A00080F80014704700F00F0000F1E02080F875
:1030B000141D70472DE9F0414F1E00EBC701044677
:1030C000D1E9000115461E4637F006020DD02A460A
:1030D0003346FDF75BF97F1E04EBC703D3E90023FA
:1030E000FDF70BFB37F00602F1D1022F25D0042F9C
:1030F00013D0062F18BFBDE8F0812A463346FDF7EE
:1031000045F9D4E90A23FDF7F8FA2A463346FDF7D4
:103110003DF9D4E90823FDF7F0FA2A463346FDF7D6
:1031200035F9D4E90623FDF7E8FA2A463346FDF7D8
:103130002DF9D4E90423FDF7E0FA2A463346FDF7DA
:1031400025F9D4E90223FDF7D8FA2A463346FDF7DC
:103150001DF9D4E90023BDE8F041FDF7CEBA012204
:10316000FDF7E1BBFDF7C9BA002213461046114630
:10317000FDF76ABB024A00201107FDF7D4BB00002F
:1031800001FDFFFF02E008C8121F08C1002AFAD1A2
:1031900070477047002001E001C1121F002AFBD1D7
:1031A0007047000001490860704700005C01002082
:1031B0002DE9FF5F82B00021DDE90430020DDDF86A
:1031C00040B0034318D044F61050A2F2FF324243FD
:1031D0001514119801281FD0A5EB0B00401C5FEAC5
:1031E000000A4FF000064E4FDFF83891B0465046C7
:1031F00015D5CAF1000413E0119801244AA301284F
:1032000001D16FEA0B010298119AC0E90031C0E9BF
:10321000024206B0BDE8F09FCBF10000DFE70446B4
:103220000021404A491842EB0450CDE9001012E059
:10323000E00707D032463B4640464946FDF7A6F830
:103240008046894632463B4610461946FDF79EF8B1
:1032500006460F466410002CEAD1DDE90401DDE9E1
:103260000023BAF1000F06DAFDF790F842464B460C
:10327000FDF78CF805E0FDF7E7FA42464B46FDF70F
:10328000E3FA04460E460022284BFDF77BFB03D8E9
:103290004FF0FF30014607E00022254B2046314623
:1032A000FDF72BFAFDF756FB102409E0002C0ADB92
:1032B0000A220023FDF75CF9039B30321A55641E85
:1032C00050EA0102F2D1641C039AC4F111031444C0
:1032D000119A012A03D0012208430DD10AE00843C4
:1032E00004D000204FF0110B119072E7A3EB0B05F7
:1032F0006D1E0DE05B4504DD4FF0000205F1010598
:1033000004E003DA4FF00002A5F10105002AECD039
:1033100002981199C0E90231C0E9004579E700003F
:10332000000014400000F03F300000000000F043B7
:103330000000E03F2DE9FF4F95B09B4689460646C9
:1033400000250FE2252877D100242746F84A0121DD
:10335000059400E0044316F8013F203B01FA03F016
:103360001042F7D130782A2811D06FF02F0330782F
:10337000A0F13002092A16D8059A44F0020402EBA3
:10338000820203EB42021044761C0590EFE759F8E5
:10339000042B0592002A03DA504244F400540590AD
:1033A00044F00204761C30782E2816D116F8010F4E
:1033B00044F004042A280DD06FF02F023078A0F1D9
:1033C0003003092B09D807EB870302EB4303C71827
:1033D000761CF3E759F8047B761C30786C280FD004
:1033E00006DC4C2817D068280DD06A2814D104E0D8
:1033F000742810D07A280FD10DE044F400140AE0AC
:1034000044F4801401E044F440147278824202D102
:1034100004F58014761C761C307866280BD013DCFB
:10342000582877D009DC002875D04528F6D04628E2
:10343000F4D047281AD19DE118E0632835D06428DC
:1034400079D0652812D195E1702873D008DC6728FF
:10345000F1D069286FD06E280DD06F2806D1B5E065
:1034600073282CD0752875D0782874D05A461799AF
:1034700090476D1C75E1C4F30250022809D003285F
:103480000DD0D9F8001004280DD00D6009F1040901
:1034900067E1D9F80010EA17C1E90052F6E7D9F858
:1034A00000100D80F2E70D70F0E719F8041B8DF89D
:1034B000001000208DF80100EA46012003E059F8D1
:1034C00004AB4FF0FF3061074FF0000102D40DE074
:1034D00008F101018846B9420FDA8045F8DB1AF895
:1034E00008100029F4D108E008F101018846814262
:1034F000FADB1AF808100029F6D105985B46A0EB14
:10350000080721463846179A00F094FA284400EB41
:10351000080507E04DE029E10DE01AF8010B5A46D5
:1035200017999047B8F10108F7D25B462146384613
:10353000179A13E142E00A220092C4F302524FF0BC
:10354000000A022A08D059F804CB032A4FEAEC718A
:103550000AD00DE029E02AE009F1070121F0070275
:10356000F2E802C1914609E00FFA8CFC4FEAEC71D7
:10357000042A03D14FFA8CFC4FEAEC71002907DAD8
:103580000A460021DCF1000C61EB02012D2202E071
:10359000220504D52B228DF80420012203E0E20746
:1035A00001D02022F7E7904659E00A2102E01022DC
:1035B0000DE010214FF0000A00910BE010224FF0B7
:1035C000000A44F004040827009203E008224FF0A8
:1035D000000A0092C4F30252022A05D059F804CB23
:1035E0000021032A08D009E009F1070121F00702B0
:1035F000F2E802C1914605E01FFA8CFC042A01D1D1
:103600000CF0FF0C4FF00008220728D5702806D0D8
:10361000009B83F0100353EA0A0305D00EE040221A
:103620008DF80420012208E05CEA010206D0302275
:103630008DF804208DF8050002229046009B83F04F
:10364000080353EA0A030AD15CEA010201D16207C6
:1036500005D530228DF804204FF001087F1E582830
:1036600004D034A003900EA802900DE036A0F9E734
:1036700053466046009AFCF77BFF84460398825CC1
:103680000298401E029002705CEA0100F0D102989C
:1036900006A9081A00F1200A600702D524F4803434
:1036A00000E00127574502DDA7EB0A0000E00020FB
:1036B00000EB0A01009005984144401A0590E00390
:1036C00006D45B462146179A059800F0B3F90544E5
:1036D000002706E001A85A46C05D179990476D1C67
:1036E0007F1C4745F6DBE0030CD55B462146179A65
:1036F000059800F09FF9054404E030205A461799D8
:1037000090476D1C0099481E00900029F5DC08E0E8
:10371000029802995A460078491C029117999047DD
:103720006D1CBAF10001AAF1010AF1DC65E10000AB
:103730000928010030313233343536373839616287
:10374000636465660000000030313233343536374B
:1037500038394142434445460000000000F058F922
:103760000544761C307800287FF4ECAD19B028466B
:10377000BDE8F08F620700D4062709F1070222F0A6
:10378000070CFCE80223E14603F000485FEA080C5E
:1037900002D00FF2702C0DE05FEA045C02D50FF24C
:1037A000682C07E05FEAC47C02D00FF2602C01E0D5
:1037B000AFF2700C4FF0FF3823F00043CDF850C04B
:1037C00065280CD006DC452809D046281DD047289E
:1037D0003DD13DE0662818D067287ED138E0002131
:1037E000112F01DB112000E0781CCDE9000106A9B2
:1037F0000EA8FFF7DDFCDDE90F010E9A0391002111
:10380000009207F1010A04914DE04FF0004000974B
:10381000CDE9011006A90EA8FFF7CAFCDDE90F02E9
:1038200003920E9B11990022DDF80CA000930492E4
:1038300011B9791C00EB010AB7EB0A0004D4C0F1FE
:10384000FF3007F1010A0490AAEB0700019044E061
:10385000012F00DA01270021112F01DD112000E0E6
:103860003846CDE9000106A90EA8FFF7A1FCDDE965
:103870000F010E9A0391002104910092BA4621078C
:103880000CD40399514500DA8A46BAF1010F05DDDF
:10389000009AAAF10101515C302908D0B84202DA3D
:1038A00010F1040F06DA0121CDE9011015E0AAF1AB
:1038B0000101E9E7002805DC049901440491AAEB21
:1038C000000102E0411C514500DD8A460499401A7E
:1038D000401C01904FF000400290200704D4019852
:1038E000504501DBCDF8048000208DF84F00029890
:1038F0000DF14F07B0F1004F25D02B200E9002980C
:103900004FF0020800280CDA404202902D200E9061
:1039100007E00A210298FCF715FE3031029007F803
:10392000011DB8F10001A8F10108F2DC029800289D
:10393000EFD1791E0E980870307800F0200040F02A
:10394000450007F8020D12A8C01B00F107081498E3
:10395000007800B1012000EB0A01019801EBE07151
:1039600005984144401A401E0590E00306D45B468A
:103970002146179A059800F05DF8054414980078E0
:1039800018B15A46179990476D1CE00324D55B4641
:103990002146179A059800F04DF805441CE004985C
:1039A000002807DBDDE90301884203DD0098405C65
:1039B000179901E0179930205A469047049805F16D
:1039C0000105401C04900198401E019004D12E2056
:1039D0005A46179990476D1CBAF10001AAF1010AE5
:1039E000DDDC05E017F8010B5A46179990476D1C6E
:1039F000B8F10001A8F10108F4DC5B462146179AF2
:103A00000598ABE62D0000002B0000002000000010
:103A10002DE9F041044600251E461746880404D4CB
:103A200005E039462020B0476D1C641EF9D52846B4
:103A3000BDE8F0812DE9F041044600251E46904680
:103A4000C80301D5302700E02027880404D505E00D
:103A500041463846B0476D1C641EF9D52846BDE87E
:103A6000F08100002DE9FE4F07460E46002568460E
:103A700001F008F800246FF00F0AE8464FF0010942
:103A800057F8240056F82410401A00D54042FCF79D
:103A9000EFFC5146FCF76EFC58F8241011F0FF4F74
:103AA0000ED0FCF729FC4FF07E51FCF7EDFBB0F592
:103AB000000F01DA80F000400849884205DC07E089
:103AC000074908440749884202D309FA04F005432C
:103AD000641C032CD4DB2846BDE8FE8F295C0F3E16
:103AE000666666C19A99D9002DE9F04D8D4F21F097
:103AF000004A86B005460C46BA452ADBAAEB070009
:103B000028430AD08848824501DC1AD1CDB106B0DD
:103B10002846BDE8F04DFFF722BB844A844B284677
:103B2000FCF734FC07460E46824A834B2846214662
:103B3000FCF72CFC06B03A463346BDE8F04DFCF7E6
:103B4000DCBD0120FFF72EFB06B0BDE8F04DFFF70E
:103B50000BBB7A48824542DABAF1795F0BDA284624
:103B6000FFF784FA042808BFFFF704FB284606B0D5
:103B70002146BDE8F08D2A460B461046FCF706FCB0
:103B8000834602466E480E460B4606217844FFF7F0
:103B900091FA5A463346FCF7F9FB804669488A4653
:103BA0005A46334604217844FFF784FA5A4633468E
:103BB000FCF7ECFB00223B46FCF79FFD02460B4660
:103BC00040465146FCF740FE2A462346FCF7DEFB02
:103BD00006B02A462346BDE8F04DFCF78EBD2846C8
:103BE00024F0004100223D463B46FCF72AFE4FF000
:103BF000FF32FCF798FE0646024653480F460B4636
:103C000006217844FFF756FA32463B46FCF7BEFBE6
:103C1000CDE900014D4832463B4604217844FFF788
:103C200049FA32463B46FCF7B1FB00222B46FCF733
:103C300064FD834602913046394602F087FB804698
:103C400043480D46504517DCDDE900015A46029B0A
:103C5000FCF7FAFD42462B46FCF798FB42462B4602
:103C6000FCF74BFD0122FCF75EFE304A304BFCF7BF
:103C7000E5FD304A304B4CE04FF0000A52460B460F
:103C80004046FCF73AFDCDE9031052462B4610465C
:103C90001946FCF77BFB32463B46FCF7D2FDDDE9DB
:103CA0000332FCF7D1FD06460F46DDE900015A4616
:103CB000029BFCF7C9FD834600910122304639463C
:103CC000FCF731FE194A1A4BFCF7BBFD06460F46BE
:103CD000012240462946FCF726FE5A46009BFCF787
:103CE00055FB32463B46FCF7A9FD06460F4601222E
:103CF00050462946FCF717FE0E4DDFF858802A463D
:103D00004346FCF79EFD32463B46FCF79AFD2A46A9
:103D10004346FCF796FD002CD8BF81F0004106B069
:103D2000BDE8F08D0000F03F0000F07F075C143329
:103D300026A6913C182D4454FB21F93F0000E03F9A
:103D4000603A0000763A0000EA390000003A0000CC
:103D50003333EF3FFB21E93F2DE9F84F04460D4691
:103D600021F0004000917349814211DC7249884280
:103D700001DC06D12CB120462946BDE8F84FFFF7FB
:103D8000EEB96E48002DCCBF6D496E49BDE8F88F85
:103D90006D49814211DD6D498142D8BF4FF0FF3638
:103DA0006DDD20462946FFF761F9042808BFFFF7BB
:103DB000E1F920462946BDE8F88F6549654F25F0B1
:103DC0000045814233DD6449814219DD00263246D7
:103DD0004FF0804320462946FCF78FFC80468A46F8
:103DE000012220462946FCF79EFD00223B46FCF7B7
:103DF00025FD42465346FCF727FD04460D463EE0AE
:103E000001260022BA463B4620462946FCF775FCAF
:103E100080460F460022534620462946FCF70EFDF9
:103E200042463B46FCF710FD04460D4627E04B4951
:103E300081421BDDDFF828A10226002253462046DE
:103E40002946FCF7A3FA00223B46FCF756FC8046C5
:103E50000F460022534620462946FCF7EFFC424617
:103E60003B46FCF7F1FC04460D4608E003262246DB
:103E70002B4600203B49FCF7E7FC04460D46224652
:103E80002B4610461946FCF781FA8B4682460246BD
:103E90000B46FCF77BFA07460246334888460B463A
:103EA00006217844FFF706F952465B46FCF76EFAA6
:103EB00082462E488B463A46434605217844FFF712
:103EC000F9F83A464346FCF761FA02460B46002EE3
:103ED000504659460CDAFCF710FC22462B46FCF7FC
:103EE00055FA01B022462B46BDE8F04FFCF7A9BCBD
:103EF000FCF703FC22462B46FCF748FA1C4A7A449E
:103F000002EBC603D3E90023FCF798FC22462B46BC
:103F1000FCF794FC174A7A4402EBC603D3E900236A
:103F2000FCF78FFC009A002AB8BF81F00041BDE881
:103F3000F88F0000000010440000F07F182D44545A
:103F4000FB21F93FFB21F9BF0000DC3F0000203ED0
:103F50000000F33F0000F03F0000E63F0080034018
:103F60000000F83F0000F0BF02380000C03700003A
:103F70005E370000263700002DE9F04D9446CCF165
:103F8000000423F000464CEA0404524F46EAD4747D
:103F90009A46884621F00042BC4206D8454240EA93
:103FA000050442EAD474BC4204D9BDE8F04D62462F
:103FB000FFF7D8B8AAF14055A5F17F6555EA0C0482
:103FC0000BD0022404EAAA74434DDFF810E144EA5E
:103FD000D87452EA000B04D00CE0BDE8F04DFFF7B6
:103FE000BBBE002C14BF012CBDE8F08D022C30D0DC
:103FF000032C32D056EA0C0B0AD0BE4220D1BA4272
:1040000009D126F0804622F080423346114617E05F
:1040100000291ADB25E0DFF8C8B0FB44002C04BF00
:10402000DBE90001BDE8F08D012C02BFDBE90001F6
:1040300081F00041BDE8F08D022C0AD0032C0CD099
:10404000BA4212D1B8F1000F0BDA23482549BDE876
:10405000F08D28462449BDE8F08D28467146BDE81C
:10406000F08D1D482149BDE8F08D921B12153C2AA8
:10407000C4BF19481D490EDCBAF1000FBEBF12F1D2
:104080003C0F0020014606DB6246FCF7DDFB21F019
:104090000041FFF761FE002C08BFBDE8F08D012C48
:1040A00004BF81F00041BDE8F08D114A114B022C94
:1040B00007D0FCF7C3FB2A46BDE8F04D0A4BFCF7DE
:1040C000BDBBFCF7BBFB2A46BDE8F04D064BFCF739
:1040D000B8BB00000000F07F182D4454FB2109C03C
:1040E000BA360000FB21F9BFFB210940FB21F93F53
:1040F000075C143326A6A13C70B50B4D0E46044652
:104100002968FCF7C1F83146FCF7F6F807492C603E
:10411000FCF7C0F8054606492046FCF7BBF82946DF
:10412000BDE87040FCF75EB8000100200AD7A33B51
:10413000000080C008B560B120208DF80000282064
:104140008DF8010030208DF8020038208DF8030032
:1041500004E0A32204216846FCF725F86A460421FE
:1041600040F69E2001F0FAFF01F01CFC08BD0000A3
:104170003EB5044602208DF80000CA208DF80100EB
:10418000E3208DF8020009208DF803006A4604211F
:10419000682001F0E3FFA3208DF80000610609D537
:1041A000C0218DF80110C8218DF80210C2218DF8B0
:1041B000031005E08DF801008DF802008DF8030072
:1041C00014F4C07F09D0C4218DF80410CC218DF8DF
:1041D0000510C6218DF8061005E08DF804008DF855
:1041E00005008DF806008DF808008DF807008DF8A1
:1041F00009006A460A2140F6A72001F0AFFFA00798
:104200004FF0D80503D020208DF8000001E08DF894
:1042100000506A46012140F6B62001F09FFFA0063B
:1042200001D5012000E0002000F08EF814F4C07FDA
:104230001ED0E0050AD5B2208DF800008B208DF845
:104240000100B6208DF802009B2009E0B0208DF817
:10425000000080208DF80100B4208DF8020090202D
:104260008DF803006A46042140F6A22001F076FF93
:10427000E1074FF40B6022D0F8218DF800106A4658
:10428000012101F06BFFFA21072000F03BFB072022
:1042900000F006FB012000F023FB642000F0C6FBC9
:1042A0004FF4FA7000F0D2FBC821254800F0C0FAA4
:1042B000282000F0D5FA0A2000F0E2FA05E08DF897
:1042C00000506A46012101F049FFA00703D5D9201B
:1042D0008DF8000001E08DF800506A46012140F29F
:1042E0003D7001F03BFF600701D5012000E0002098
:1042F00000F048F8E00601D5012000E00020FFF7BB
:1043000019FF104D44F00800688101F04BFB0020BC
:10431000A873600601D50620A87314F4C07F02D0EC
:10432000A87B801DA87314F0140F02D0A87B103056
:10433000A873A00702D0A87B001DA87300203EBD73
:1043400009E3CA02800200200EB54FF4976310B152
:1043500006A107C901E008A207CA8DE807006A465E
:104360000921184601F0FAFE0EBD0000B8AAB38D6F
:10437000B4980D355D000000B8AAAAAAB088C3C5DC
:10438000C700000008B560B1C0208DF80000C22051
:104390008DF80100C4208DF80200C6208DF80300BE
:1043A00004E08B2204216846FBF7FDFE6A460421E7
:1043B00040F6982001F0D2FE01F0F4FA08BD0000AA
:1043C000C8234FF48062024940F6F63001F096B9F6
:1043D000F46900082DE9FF4F89B01746DDE9165250
:1043E00000244D4E884681462C80A246B07B69460B
:1043F00001F042FA4FF0FF3B18B158460DB0BDE84E
:10440000F08F708910F0140F3CD0009909BA21F098
:10441000FF039DF803100B433B6001991B1409BA7D
:1044200021F0FF029DF807105B430A437A6002996E
:104430009DF80B4009BA21F0FF012143B960039CAC
:10444000091424BA24F0FF0C9DF80F4012144CEA12
:10445000040CC7F80CC04FEA2C47494302FB023258
:1044600007FB071111441024A1F17061B1F1007F25
:1044700004D901F097FAA5F800A0BEE7298841F415
:10448000807129804206694611D50A19A41D138836
:104490005BBAA8F8003053885BBAA8F8023092885B
:1044A00052BAA8F804202A8842F008022A8010F4A0
:1044B000C07F11D00A19A41D13885BBAA9F8003077
:1044C00053885BBAA9F80230928852BAA9F804203E
:1044D0002A8842F070022A80800716D00C44E078C7
:1044E00000F0C00500F03F016078C00706D0C808A2
:1044F00001F007013268491C02B19047607800075B
:1045000003D5716809B1A8098847FCF707FD0C9924
:104510000860002072E70000800200202DE9FF41C2
:10452000044603A800F0BAFFBDF80C00410CC30319
:104530002F48028902F00300550754F8200000D5E7
:104540004042C2F3C105960654F8255000D56D428D
:10455000C2F38116D20554F8264000D56442A0FB70
:104560000367C21702FB037200FB0120820042EACC
:104570009670A5FB0367EA1702FB037205FB012295
:10458000950045EA9672A4FB0367E51705FB0373E4
:1045900004FB01318B0043EA9671030E8DF8003065
:1045A000030C8DF80130030A8DF802308DF80300FA
:1045B000100E8DF80400100C8DF80500100A8DF80F
:1045C0000600080E8DF80800080C8DF80900080A8E
:1045D0008DF80A008DF807208DF80B106A460C2123
:1045E0004FF4257001F0BAFD04B0BDE8F081000081
:1045F0008002002030B5044613A285B007CA8DE8BA
:1046000007004FF0FF35C82C16D8C820B0FBF4F1D6
:10461000491E080A8DF80C008DF80D1003AA02211E
:1046200040F2162001F09AFD30B96A460C2140F69E
:10463000C12001F093FD10B1284605B030BD0548FA
:1046400084810020F9E70000FEF2ABC4AAF1DFDFAD
:10465000BBAFDFDF80020020F8B53049098901F0E7
:10466000030250F822404A0700D56442C1F3C10258
:104670008B0650F8222000D55242C1F3811350F826
:104680002330C80500D55B42254984FB01408500E5
:1046900045EA947082FB0142A40F44EA820483FB42
:1046A0000121950F45EA8105010E8DF80010010CDE
:1046B0008DF80110010A8DF802108DF803006A468A
:1046C00004214FF4747001F049FD4FF0FF3688B9B2
:1046D000200E8DF80000200C8DF80100200A8DF8C6
:1046E00002008DF803406A4604214FF4757001F012
:1046F00035FD08B13046F8BD280E8DF80000280CB5
:104700008DF80100280A8DF802008DF803506A46E2
:1047100004214FF4767001F021FDF8BD80020020E5
:1047200009E3CA022DE9FF4104463CA004F003035B
:10473000006802903AA0006803903AA006683AA088
:10474000056802A8C15C8DF80010C4F3C101425C89
:104750008DF80120C4F38112805C8DF8020003A85B
:10476000C35C8DF80430415C8DF80510805C8DF8D9
:1047700006006A46032140F2264001F0EFFC4FF0AC
:10478000FF37E0BB01AA032140F22A4001F0E6FC1A
:10479000A8BBCDE9006560070BD59DF8000040F08F
:1047A00001008DF800009DF8040040F001008DF834
:1047B0000400A0060BD59DF8010040F001008DF823
:1047C00001009DF8050040F001008DF80500E005AE
:1047D0000BD59DF8020040F001008DF802009DF815
:1047E000060040F001008DF806006A4603214FF4F0
:1047F000886001F0B3FC10B901AA032100E004E0D5
:1048000040F2314001F0AAFC18B1384604B0BDE8CE
:10481000F081064804810020F8E700004CCD6C00D0
:104820000CC92C0036567600264666008002002011
:104830004FF47A7290FBF2F008B54843010E8DF800
:104840000010010C8DF80110010A8DF802108DF88E
:1048500003006A4604214FF4AE7001F07FFC08BDEE
:104860000521B0FBF1F008B5010A8DF800108DF8B4
:1048700001006A4602214FF4AD7001F06FFC08BDE3
:104880000521B0FBF1F008B5010A8DF800108DF894
:1048900001006A4602214FF4AC7001F05FFC08BDD4
:1048A00008B500218DF80010C10702D030218DF825
:1048B0000010810705D59DF8001041F00C018DF81E
:1048C0000010400705D59DF8000040F003008DF86A
:1048D00000006A4601214FF4A47001F03FFC08BDBE
:1048E00008B560B1042800D90420401E8DF80000EE
:1048F0006A46012140F24F1001F030FC08BD012052
:10490000F3E700002DE9FC41054640074FF0FF3674
:104910007CD0B1F5C86F79D80846FBF7B2FD3E49A7
:10492000FBF7EAFC074601A800F09AFD9DF8040099
:10493000022806D004280DD008282ED0102865D1D2
:1049400034E00E213846FBF715FDFBF7B8FD84B2C5
:10495000324907E00D213846FBF70CFDFBF7AFFDB0
:104960002F4984B23846FBF795FCFBF7A8FD210AD6
:104970008DF8001080B28DF80140010A8DF8021008
:104980008DF80300E8076C4620D0224602214FF440
:10499000EA7001F0E3FBC8BB11E00C213846FBF7DD
:1049A000E9FCFBF78CFD84B21E49DBE70B2138469E
:1049B000FBF7E0FCFBF783FD84B21B49D2E7A21CA6
:1049C00002214FF4927001F0C9FBF8B9A8070DD588
:1049D0006A4602214FF4EC7001F0C0FBB0B9A21C92
:1049E00002214FF4947001F0B9FB78B9680710D533
:1049F0006A4602214FF4EE7001F0B0FB30B9A21C00
:104A000002214FF4967001F0A9FB10B13046BDE8C9
:104A1000FC810020FBE70000000048430000404606
:104A20000000C045000040450000C0440521B0FB27
:104A3000F1F008B5010A8DF800108DF801006A4602
:104A400002214FF4EF7001F089FB08BD0521B0FB96
:104A5000F1F008B5010A8DF800108DF801006A46E2
:104A600002214FF4ED7001F079FB08BD13B510235E
:104A7000012269460248FDF7A5FB00981CBD000015
:104A8000FC0100202DE9F04385B0064602220421F6
:104A900004A88DE80700264801230D22406801780C
:104AA0002448FCF705FB18B1072005B0BDE8F083EA
:104AB0009DF810101C2000EAD1029DF81310DFF8B9
:104AC0007890C1F301131A438DF80C209DF8112042
:104AD000C1F3810300EAD2021A438DF80D209DF83C
:104AE000122001F0030100EAD20008430024134F12
:104AF0008DF80E00A04603AD285D10B146F8249055
:104B000009E046F824800CE056F824003946FBF70B
:104B1000C1FB46F82400285D401E10F0FF00285518
:104B2000F2D1641CE4B2032CE6D30020BDE7000000
:104B30002C010020600100207B14AE3E1D5A843FF2
:104B40002DE9F04F87B04FF002090DF10C0B4FF03B
:104B5000010ACDE900B9F84E8DF80CA04FF000081D
:104B600005468DF80D80CDF80890306817460C4644
:104B7000427D706853460178F048FCF7C1FB00287D
:104B80007DD1C820FCF79CF800208DF80C00D046A1
:104B9000CDF800B0CDE901893068DA460123427CC6
:104BA00070680178E548FCF7ABFB0028E8D1C34604
:104BB000CDF80890CDE900AB3068D04601234279AA
:104BC00070680178DD48FCF79BFB0028D8D1DA46F5
:104BD000CDF80080CDE901A93068C3460123427DAC
:104BE00070680178D548FCF78BFB0028C8D1C8460F
:104BF000D146CDF800B0CDE901983068DA460123FE
:104C0000827E70680178CD48FCF77AFB0028B7D126
:104C1000CDF800A0CDE9019831687068D3460A79D3
:104C20000178B2460123C548FCF76AFB0028A7D1EA
:104C30000C208DF80C0002204E46CDF800B0CDE9D6
:104C40000160DAF80010DAF80400D1460A79017838
:104C50000123BA48FCF754FB002891D10F20FCF740
:104C60002FF8D9F8281003AB4FF0020A497ACDE9A2
:104C700000368DF80C10B346CDF808A000E0A0E097
:104C8000D9F80010D9F8040001238A780178AB48DC
:104C9000FCF736FB002889D1D9F828004E460DF1E3
:104CA0000C09007ACDE9009BD0468DF80C00CDF8B8
:104CB00008803068DA4601234278706801789F489E
:104CC000FCF71EFB00287CD1B06A807A0FB140F05F
:104CD000E0008DF80C00CDF80090CDE901A8306817
:104CE00001238279706801789448FCF709FB002859
:104CF00067D127B1B06AC07A40F0E00000E0182028
:104D00008DF80C00CDF80090CDE901A830680123A2
:104D1000C279706801788948FCF7F2FA002872D1EC
:104D200017B1C820FBF7CCFFCDE9009A4020C3465D
:104D30008DF80C00CDF808B030685746C8460279A7
:104D40007068012301787D48FCF7DAFAC8BBCDE929
:104D5000008778208DF80C00CDF808B03068D9466F
:104D600001234279706801787448FCF7C9FA40BBA6
:104D70003220FBF7A5FFCDE900874FF0000A8DF840
:104D80000CA0CDF808903068012342797068017852
:104D90006A48FCF7B5FAA0B903A9CDE90019CDF826
:104DA000089031687068B0460A7B01780123634837
:104DB000FCF77EF928B9BDF80C004FF00C0B40BA97
:104DC00000E020E0B0FBFBF0C5F808A0C5F804A0A7
:104DD000C5F800A0C4F808A0C4F804A0C6B2002713
:104DE000C4F800A040E003AACDE9002BCDF808905C
:104DF000D8F80010D8F8040001234A7B01784F4806
:104E0000FCF756F920B14FF0FF3007B0BDE8F08F46
:104E1000BDF80E10BDF80C0049BA40BA0AB22368BA
:104E200000B2BDF8101018442060606849BA104400
:104E30006060A06809B20844A060BDF812002B6849
:104E400040BA00B2BDF81410BDF81620184428600E
:104E500049BA686809B20844686052BAA86812B2D0
:104E600010447F1CFFB2A860B742BCD328688322DD
:104E7000C117090441EA104100040023FBF752F96D
:104E800032460023FBF74EF9286068688322C11779
:104E9000090441EA104100040023FBF743F93246BC
:104EA0000023FBF73FF96860A8688322C117090453
:104EB00041EA104100040023FBF734F93246002395
:104EC000FBF730F9A86020684FF40065C1170904AA
:104ED00041EA104100042A460023FBF723F9324639
:104EE0000023FBF71FF9206060682A46C1170904F8
:104EF00041EA104100040023FBF714F93246002375
:104F0000FBF710F96060A0682A46C117090441EA5E
:104F1000104100040023FBF705F932460023FBF79C
:104F200001F9A060002802DDA0F5803001E000F565
:104F30008030A060002068E72C0100206001002084
:104F40002DE9FF5F8846814603AE022003210096CB
:104F5000CDE901102E480025012340680D2201787B
:104F60002C48FCF7A5F818B1072004B0BDE8F09F65
:104F70009DF80C00002400F01F008DF80C009DF837
:104F80000D006FF00F0B00F01F008DF80D009DF865
:104F90000E004FF0010A00F01F008DF80E0000BF58
:104FA00059F8241058F82400081A00D54042FBF79D
:104FB0005FFA5946FBF7DEF90746305DD8B116486F
:104FC00002E01649FBF766F9315D491E11F0FF0159
:104FD0003155F6D101463846FBF78EF94FF07E5138
:104FE000FBF752F9B0F5000F01DA80F000400C49F0
:104FF000884205DC07E00B483844B0F1D97F02D97C
:105000000AFA04F00543641C032CC9DB2846ACE70C
:105010002C010020600100200000C84154E3853FBE
:10502000295C0F3E0000E0BE00B5024600F00DF81E
:105030000346D01C00F009F843EAC003901D00F0BD
:1050400004F843EA801080B200BD90F900100029F6
:1050500002DD4FF00000704702DA4FF004007047A5
:1050600090F90110002902DD4FF00100704702DACB
:105070004FF00500704790F90200002802DD4FF064
:105080000200704702DA4FF0060070474FF0070049
:10509000704700001FB53D4C4FF496666660FCF704
:1050A00005FAFDF777FDFDF7CFFAFDF795FBFDF764
:1050B0001FFBFDF73DFB6FF04043062234A136484D
:1050C000FDF780F8002201213448FBF721FF002181
:1050D0003348FCF7ADFE08213148FCF7A9FE304DFE
:1050E00028684663296842F6E060C8632DA0FDF792
:1050F000ADFFFDF7ADFBFDF78DFB00221146122041
:10510000FDF75EFC012200212420FDF759FC02225C
:1051100000213620FDF754FC032200214820FDF732
:105120004FFC22A203210620FDF7D5FC23A2062175
:105130000020FDF7D0FC24A206214120FDF7CBFC86
:10514000012003460246009003214E20FDF792FC09
:10515000FBF7E0FC4FF4FA664FF42F7703AA01A99E
:1051600002A800F05FF868B9019801F037F82060F4
:10517000B04201DD266002E0B84200DA276029680B
:10518000206848630A20FBF79BFDE7E70801002041
:1051900068656C6C6F0A0000FC010020000C014087
:1051A000B4010020BBD8D5FD000000007370656518
:1051B000642069733A206D2F7300000079696E676F
:1051C0006A69616E000000006B657368650000002D
:1051D0002DE9F041124C20F00101002594F8240043
:1051E00010B10020BDE8F081A07A4FF0FF3668B121
:1051F0000840277C2074884200D0354641B1012008
:1052000001F068F800F0CEFB38B127743046E9E7CA
:10521000207D00B1012001F05DF82846E2E70000A2
:105220002C0100202DE9F74F8EB00CA902A8CDE982
:1052300000010BAB03AA09A907A8FFF7CBF818B127
:10524000012011B0BDE8F08FBDF80800C0057DD584
:105250000398FBF70DF96FF01D042146FBF78AF860
:1052600082460498FBF704F92146FBF783F8814650
:105270000598FBF7FDF82146FBF77CF88046069879
:10528000FBF7F6F82146FBF775F805460121504675
:10529000FBF770F806464146FAF7FCFF04464FF06C
:1052A00040414846FAF7F6FF07462946FAF7F2FF6B
:1052B0002146FAF797FFFBF716F9FEF715FC4FF0BA
:1052C000663B5A463D4BFBF761F8FBF71FF90E9919
:1052D000086001214046FBF74DF841460090FAF77F
:1052E000D9FF044638464946FAF7D4FF2146FAF773
:1052F000CBFF4FF07E51FAF775FFFBF7F4F8074646
:105300000C4630464946FAF7C5FF0646294600983E
:10531000FAF7C0FF3146FAF765FFFBF7E4F83A46C3
:105320002346FEF729FE5A46244BFBF72FF8FBF7DE
:10533000EDF80F99086029460846FAF7ABFF0746D3
:1053400041460846FAF7A6FF064600E034E0494623
:105350000846FAF79FFF044651460846FAF79AFFB7
:105360002146FAF73FFF3146FAF78EFF3946FAF742
:105370008BFFFBF7B8F806460C4629465046FAF76D
:1053800089FF054641464846FAF784FF2946FAF761
:1053900029FF0121FAF7EEFFFBF7A5F83246234675
:1053A000FEF7EAFD5A46054BFAF7F0FFFBF7AEF8B9
:1053B00010990860002044E7022042E766A64C40AE
:1053C00010B5002000F0F0F808B10A2010BD7820D8
:1053D00000F056FE10F0FF0F01D0012010BD782024
:1053E000FFF7F6FE10F0FF0F01D0022010BDC8201D
:1053F00000F0FCFD10F0FF0F01D0032010BDFEF700
:10540000DFFF10F0FF0F01D0042010BD1348FFF79D
:105410000BFEFFF787F910F0FF0F01D0052010BD3C
:1054200040F27310FEF7A4FE10F0FF0F01D006202B
:1054300010BDC820FFF7DEF810F0FF0F01D00720E5
:1054400010BD00F007FF08B1082010BD012000F0DA
:10545000CDFC10F0FF00F8D0092010BD2001002085
:105460000D494A7A42B1012A08D0022A0FD0032AF4
:105470000FD04FF0FF307047022200E0042202708C
:10548000C97C11B11106C90D0170002070470822B6
:10549000F5E71022F3E700002C0100200F494A7ABB
:1054A00042B1012A09D0022A11D0032A12D04FF0AA
:1054B000FF3070474FF4804201E041F69C72028059
:1054C000C97C11B1C2F34E010180002070474FF436
:1054D0008052F4E74FF40062F1E700002C01002055
:1054E0000B49097A39B1012907D002290AD00329C9
:1054F0000BD0002103E0FA2101E04FF4FA710180A2
:10550000002070474FF47A71F9E74FF4FA61F6E73B
:105510002C0100200A49097A41B1012908D0022949
:105520000AD003290AD04FF0FF307047054900E048
:1055300005490160002070470449FAE70449F8E78B
:105540002C01002000000343000083423333034258
:10555000333383410C49C97A072913D2DFE801F0BC
:105560001204060A0C0E1000BC2100E0622101802A
:10557000002070472A21FAE71421F8E70A21F6E70C
:105580000521F4E70021F2E72C010020054991F8FC
:10559000242012B14FF0FF307047C98901800020EC
:1055A000704700002C0100202DE9F04786B08020D4
:1055B0008DF80C000DF10C090227012648464D4CD0
:1055C0008DE8C10020683346427D606801784A4812
:1055D000FBF796FE4FF0FF3A002838D16420FBF726
:1055E0006FFBCDE900960025B8468DF80C50CDF83C
:1055F000088020684F460123427D606801783E485C
:10560000FBF77EFE00286CD10621CDE90071CDF8B4
:10561000088020680123427E606801783648FBF7E5
:1056200047FD00285DD19DF811009DF80F10C007BF
:10563000400F01F0010140EA41009DF80D1001F01A
:105640000101084304D0012835D0022814D048E0D5
:10565000CDE90076CDF8088020680123C278606823
:1056600001782548FBF724FDD8BB9DF80C0010F00D
:105670000F0036D004281ED0E574FF2004F80A0F6E
:105680004FF6FF7104F8020C04F8010C6070A18061
:10569000A0712072A67026766576E572A572E56027
:1056A00025616561A576E576A5834FF4FA6000F083
:1056B000E5FBB0B901E0E674DFE7022000F0C4FAD0
:1056C00078B92A2000F052FC58B9322000F08EFC44
:1056D00038B90020FFF77CFD18B9002000F0F0FA7F
:1056E00018B1504606B0BDE8F087002000F0C8FCB5
:1056F0000020F7E72C010020600100202DE9FF4F7A
:10570000DFF89C80064689B098F8250015460F46BC
:105710004FF0FF39D8BBD7B3002420E0301B10284E
:1057200000DD102080B283463A1901469246204699
:1057300000F014FD58BB03AA5946204600F0FAF8C1
:1057400028BB50465A4603A9FAF73FFD20B16FF037
:1057500001000DB0BDE8F08F04EB0B0084B2B44241
:10576000DCD3280A8DF81C00022007A9CDE900101F
:105770008DF81D500290D8F8000044460123427F66
:10578000D8F8040001780748FBF7BAFD08B148468D
:10579000DFE7012084F825000C98E0840020D8E79A
:1057A0002C010020600100202DE9FF5F06464FF02C
:1057B000FF3B28284DD800272D4C0DF10C094FF048
:1057C000070802257EB1012000F096FB20208DF80D
:1057D0000C004FF0010A012E1AD0052E1BD88DF8AF
:1057E0000DA0052021E0002000F086FBCDE900950A
:1057F0008DF80C708DF80D80029520680123427D94
:10580000606801781B48FBF77BFD10BB27752CE017
:105810008DF80D70E5E7142E03D88DF80D500A2091
:1058200003E003208DF80D00142000F09FFB9DF88D
:105830000D10CDE9009508EB81108DF80D00029553
:1058400020680123427D606801780A48FBF758FD13
:1058500018B1584604B0BDE8F09F0820A072277325
:1058600084F814A00020FFF7B3FC0020F2E700004A
:105870002C010020600100202DE9FF5F2B4C074622
:10588000904694F824008B464FF0FF3AB0B3A07ACC
:10589000A0B302260DF10C09CDE90096029620680E
:1058A0000123027B606801782148FBF701FC28BBDB
:1058B000BDF80C0045BABD4203D2002188F80010A3
:1058C0002AE060684188B5EB510F18D90122CDF864
:1058D0000090CDE9012621680123CA7C0178144893
:1058E000FBF7E6FB50B99DF80C00C00607D500F0A9
:1058F00059F86FF0010004B0BDE8F09F0CE0CDF85E
:1059000000B0CDE9017620680123427B6068017810
:105910000748FBF7CDFB08B15046ECE7B5FBF7F0C5
:10592000401E88F800000020E5E700002C01002060
:10593000600100202DE9FF4115000E464FF0FF37B2
:1059400028D0164CA17A29B3010A8DF80C10C0B2E8
:105950008DF80D00616830444A8990421AD84FF0A2
:10596000020803AACDE90028CDF80880206809784C
:105970000123C27E0A48FBF7C3FC58B98DE86001D9
:1059800020680123027E606801780548FBF790FBE0
:10599000002800D0384604B0BDE8F0812C0100207A
:1059A000600100202DE9FF47694C4FF0FF39A07AD4
:1059B000002879D000270DF10C088DF80C70022614
:1059C000012540468DE8610020682B46427C6068D6
:1059D00001786048FBF794FC002865D1CDF8008081
:1059E000CDE901562168606801234A790178594858
:1059F000FBF786FC002857D1CDF80080CDE9015691
:105A00002168606801230A7901785248FBF778FC25
:105A1000002849D194F8240078B30C208DF80C00AC
:105A2000CDF80080CDE90156206801230279606835
:105A300001784848FBF764FC002835D13220FBF799
:105A40003FF9C0208DF80C00A07AC00702D0E020FA
:105A50008DF80C00CDF80080CDE9015620680123B7
:105A60000279606801783B48FBF74AFC00286AD15C
:105A7000607C18B18DF80C6002E016E08DF80C70B7
:105A8000CDF80080CDE9015620680123427C606892
:105A900001783048FBF734FC30B98DF80C70CDF844
:105AA0000080CDE9015644E04DE004208DF80C0063
:105AB000CDF80080CDE901562068012302796068A5
:105AC00001782448FBF71CFCE8BBA07CA0B9A07AB5
:105AD000C00711D05FF060008DF80C00CDF8008099
